:020000040800F2
:1000000000100020C9300008153100081531000823
:1000100000000000000000000000000000000000E0
:100020000000000000000000000000001531000882
:100030000000000000000000153100081531000824
:100040001531000815310008153100081531000878
:100050001531000815310008153100081531000868
:100060001531000815310008153100081531000858
:100070001531000815310008153100081531000848
:100080001531000815310008000000001531000886
:100090001531000815310008691C000815310008E9
:1000A000153100081531000815310008B13B000872
:1000B00015310008000000001531000800000000A4
:1000C0005FF808F180B500AF80235B01181C0121A7
:1000D00001F00EFD9023DB05181C0421002203F023
:1000E0004FF99023DB05181C0521002203F048F985
:1000F0009023DB05181C0621002203F041F9902310
:10010000DB05181C0721002203F03AF9274B9E2239
:1001100052001A80254B264A9A80264A99239B0032
:100120000021D154234A244B0021D154214A9A233F
:100130009B001121D1541F4A204B0021D154204A49
:1001400099239B000021D1541D4A1B4B0021D154FF
:100150001B4A9A239B001121D154194A174B0021A5
:10016000D154184B00221A70164B01221A71154BEC
:1001700000225A71134B00229A71124B0022DA713D
:10018000104B00221A81104B1A6B0E4BDA600E4B8B
:100190001A6B0C4B1A610C4B1A6B0A4B5A610A4BC7
:1001A0001A6B084B9A61BD4680BDC04600300140C5
:1001B000070700001000002065020000690200002F
:1001C000E00200207C0500201006002080B586B0EB
:1001D00000AFD64B1B78072B01D900F042FC9A00E8
:1001E000D34BD3181B689F463D2000F07FFECF4ABB
:1001F0002023D35C002B04D0CC4B00221A7000F0DB
:1002000030FC302000F072FECA4B1B6BDA1CC74B6F
:10021000DA61C64B01221A7000F023FC3D2000F089
:1002200065FEC24A2023D35C002B09D13A2000F09E
:100230005DFE3B2000F05AFEBC4B02221A700AE021
:10024000BA4BDA69BB4B1B6B9A4204D8B74B0022FE
:100250001A7000F006FC00F004FC3B1C1033B64A98
:100260001A800020302100F05FFCB44B00221A708D
:10027000B24B06225A70B14B09229A70AF4B002242
:10028000DA703B1C10335A78AC4B1A713B1C10339C
:100290001A78AA4B5A71A94BFF229A71A74B0D22CB
:1002A000DA71A64B05221A72A44B11225A72A34B83
:1002B00009229A72A14B0C22DA72A04B00221A7307
:1002C0009E4B10225A739D4BB1229A739B4B3B223B
:1002D000DA739A4B2A221A74984B83225A74974BDA
:1002E00003229A74954B3222DA74944BF8221A75D1
:1002F000924B54225A75914B07229A758F4B30229C
:10030000DA758E4B18221A768C4B1D225A768B4B3F
:100310001C229A76894BC722DA76884B00221A77FC
:10032000864BB0225A77854A2023FB21D154834A39
:100330002123B621D154814A22231021D1547F4A4E
:100340002323E921D1547D4A24232A21D1547B4AF5
:1003500025230021D154794A26231F21D154774ADD
:1003600029235921D154754A2A237F21D154734A14
:100370002B233F21D154714A2C238821D1546F4A19
:100380002D233121D1546D4A2E230921D15400202F
:10039000302100F0A1FC3E20C02100F069FC634B3D
:1003A00003221A7000F05DFB332000F09FFD5F4BCD
:1003B00004221A705F4B1B6BDA1C5C4BDA6100F095
:1003C00050FB352000F02CFD031C191C574A282334
:1003D000D154564A2823D35CDB06DB0EDBB2162B46
:1003E0001FD89A00564BD3181B689F464F4B0022CC
:1003F0001A70F3E0362000F079FD4E4B1B6B5A1C4F
:100400004A4BDA61EAE03A2000F070FD474B0322E4
:100410001A70E3E03B2000F069FD444B03221A70A0
:10042000DCE0424BDA69434B1B6B9A4203D83F4BEB
:1004300000221A70D2E0D1E0342000F057FD3B4B8F
:1004400005221A703B4B1B6BDA1C384BDA61374BB9
:100450009B79012B02D0022B50D0BBE0334BDB79D0
:10046000012B02D0072B28D031E0304B5B7A022BD6
:1004700009D0032B0DD0012B11D12C4B1A7A01215D
:100480000A431A720BE0294B1A7A02210A431A72A4
:1004900005E0264B1A7A04210A431A72C046234B00
:1004A0000222DA71214B9A69204B1A611F4B9B691A
:1004B0001A1C64321D4BDA601FE01C4B0822DA71F3
:1004C0001A4B9B691A1C1E32184BDA6015E0174B49
:1004D0001B79002B03D0154B0022DA7102E0134B7D
:1004E0000922DA71134B1A6B104B1A61114B1B6BFB
:1004F00014495A180D4BDA60C0466BE0124A134B90
:10050000D35C012B4FDB032B02DD042B20D04AE010
:10051000064B0622DA71054B5A69044B1A61034BEC
:100520005B691A1C1E32014BDA6052E07C05002028
:100530002446000810060020FB3D00004C0500206A
:1005400044460008CD0500001000002067020000AE
:10055000D54B0322DA71D54A99239B00D35C1A1C30
:10056000131CDB009B189B00D04A9B187B617B69A6
:10057000DA783B1C0C331A707B691A793B1C0C33FC
:100580005A703B1C0C331A78C949CA4BCB5C9A424F
:1005900004D1C54B1A7A08210A431A72C24B5A6910
:1005A000C14BDA6015E0C04B1B79002B03D0BE4B6A
:1005B0000022DA7102E0BC4B0922DA71BE4B1A6BE1
:1005C000B94B1A61BC4B1B6BBC495A18B64BDA606D
:1005D000C046C046B44B00229A71C04641E2352065
:1005E00000F01EFC031C191CAF4A2823D154AE4A4C
:1005F0002823D35CDB06DB0EDBB20D2B00D0A0E1A1
:100600009023DB051B8A9BB21A1C4023134008D1A0
:100610009023DB051B8A9BB21A1C80239B0013408E
:100620000CD0A14B06221A709F4B02229A71A24B4A
:100630001B6B1A1C9C329C4BDA6181E19A4BDB7973
:10064000092B00D988E19A009D4BD3181B689F465F
:10065000954BDA68984B1B6B9A4216D8924BDB6825
:1006600096495A18904BDA608F4B5B790133DAB2B6
:100670008D4B5A718C4B5B79032B06D98A4B002228
:100680005A71894B00221A705AE159E1864BDA6897
:10069000894B1B6B9A4208D8834B0322DA71824B39
:1006A0001A7A08218A431A724AE149E17E4BDA68D4
:1006B000814B1B6B9A4200D994E07B4B0422DA7188
:1006C000794B1B79002B37D0774B1B7A1B07DB0F3D
:1006D000DBB2002B22D0744B00221A71724B002225
:1006E0005A713A1C0832774B111C1A1C0323081C40
:1006F000111C1A1C03F050FF3B1C0833181C01216D
:10070000002203F095FE684BDB681A1C6432664BCE
:10071000DA600720012101F06DFD05E0624BDB6826
:100720001A1C1E32604BDA605F4B00221A815F4B4D
:10073000181C01F061F855E05B4B1B7A1B07DB0FBF
:10074000DBB2002B0DD0584B00221A81574B181CDE
:1007500001F052F8544BDB681A1C6432524BDA60D9
:1007600040E0514BDB681A1C1E324F4BDA604E4B97
:100770001B7A5B07DB0FDBB2002B33D04A4B002226
:100780001A814A4B181C01F037F8474BDB681A1CDA
:100790006432454BDA60444B5B790133DAB2424B49
:1007A0005A71414B5B79032B1CD93F4B00225A7184
:1007B0003D4B01221A713A1D434B111C1A1C032395
:1007C000081C111C1A1C03F0E7FE3B1D181C01211C
:1007D000002203F02DFE3D4B0720191C002201F0E2
:1007E000F5FBADE0ACE0304BDA68334B1B6B9A4263
:1007F00011D82D4B1B79002B03D02B4B0022DA7123
:1008000002E0294B0922DA71274B1B692B495A1840
:10081000254BDA6094E093E0234BDA68264B1B6BA0
:100820009A421DD89023DB051B8A9BB21A1C802399
:10083000DB00134002D000F0B1FD11E01A4BDB6881
:100840001A1C46321C4B1B6B9A4209D81A4B1B6B65
:100850001A1C1E32144BDA60134B0822DA716FE057
:100860006EE0114BDA68144B1B6B9A4209D80E4BA1
:100870000922DA710C4B1B6910495A180A4BDA60CD
:100880005EE05DE0084BDA680B4B1B6B9A4241D887
:100890009023DB051B8A9BB21A1C8023DB001340CC
:1008A00016D000F095FC4AE07C050020E002002014
:1008B000100000206602000010060020CD05000098
:1008C000A04600081C4600082046000888130000C7
:1008D000654BDB6865495A18654B1B6B9A422ED8ED
:1008E000614BDB6861495A185F4BDA605E4B5B799C
:1008F0000133DAB25C4B5A715B4B5B79032B1ED927
:10090000594B00225A71584B01221A71564B002242
:100910001A7014E0574A584BD35C002B03D1524B4A
:100920001B79002B0BD09023DB051B8A9BB21A1C72
:100930008023DB00134002D000F04AFCFFE7C046F2
:100940000AE0494BDA694A4B1B6B9A4203D8464B83
:1009500004221A7001E000E0C04682E09023DB052B
:100960001B8A9BB21A1C4023134009D03E4BDA6904
:100970003F4B1B6B9A4232D83B4B00221A7070E0FF
:10098000352000F04DFA031C191C374A2823D15496
:10099000354A2823D35CDB06DB0EDBB20F2B04DCED
:1009A0000E2B04DA012B05D00EE0112B0CD13620D2
:1009B00000F09CFA2C4B04221A702D4B1A6B2A4B18
:1009C0005A6100F0F3FA0AE0274BDA69284B1B6BF7
:1009D0009A4203D8244B00221A70FFE7C04640E039
:1009E0009023DB051B8A9BB21A1C4023134009D0BD
:1009F0001D4BDA691E4B1B6B9A4231D81A4B0022F1
:100A00001A702EE0352000F00BFA031C191C164A50
:100A10002823D154144A2823D35CDB06DB0EDBB237
:100A2000142B04D0162B02D0012B03D00DE036205E
:100A300000F05CFA0C4B04221A700D4B1A6B0A4B37
:100A40009A613B2000F052FA0AE0074BDA69084B42
:100A50001B6B9A4203D8044B00221A70FFE7C04672
:100A6000C046BD4606B080BD7C050020CD05000017
:100A700010060020E00200206902000080B582B06C
:100A800000AF021CFB1D1A70224B224A128892B240
:100A900040210A4392B21A801F4B1F4A11681F4A15
:100AA0000A401A601E4B1E4A11681C4A0A401A600E
:100AB000194B1B49FA1D12784A605A60194B2022C3
:100AC0005A60154B144A126801210A431A60144BEC
:100AD000134A126801210A431A60C046114B1A6872
:100AE00020231340FAD00C4B0B4A11680B4A0A40E2
:100AF0001A600B4B0A4A1168084A0A401A60054BF3
:100B0000044A128892B240218A4392B21A80BD46AA
:100B100002B080BD003001401C000240FEFF00001A
:100B2000300002400000024080B586B000AF0A1CD1
:100B3000FB1D011C1970BB1D1A703B1C10331A7869
:100B400040210A431A703B1C10331A788021494215
:100B50000A431A70FB1D1A783F231340D9B23B1C7D
:100B600010333F220A4019783F2081430A431A700C
:100B70003B1C1233BA1D117801220A401A703B1C2B
:100B800012331B78002B07D03B1C10331A78324BE2
:100B90001A70324B7B6109E02F4B3D221A703B1CCF
:100BA00010331A782C4B5A702D4B7B61BB1D1B7870
:100BB0005B08DBB20133DBB2181CFFF75FFF3B1CA5
:100BC000133300221A7013E0FB1D1B78FA1D591C09
:100BD00011703A1C1332127879698A181178214AF7
:100BE000D1543B1C13331A783B1C133301321A7057
:100BF0003A1C1332BB1D12781B789A42E4D3BB1DFA
:100C00001B785B08DBB2184A5B00D31801331A78F3
:100C10003B1C0C331A703B1C0C331B781B06DB0F80
:100C2000DBB2191C114A2023D1543B1C0C331B7816
:100C30005B065B0FDBB2191C0C4A2123D1543B1C11
:100C40000C331B781B071B0FDBB2191C074A22232E
:100C5000D154BD4606B080BD7C020020AD05002009
:100C6000AE0500204C050020AC0500207C050020CE
:100C700080B584B000AF0A1CFB1D011C1970BB1DA0
:100C80001A703B1C0C331A7840218A431A703B1CA3
:100C90000C3319787F220A401A70FB1D1A783F2303
:100CA0001340D9B23B1C0C333F220A4019783F2035
:100CB00081430A431A703B1C0C331A78054B1A7097
:100CC000044BBA1D12785A700120FFF7D7FEBD46BB
:100CD00004B080BD7C02002080B586B000AF0A1C45
:100CE000FB1D011C1970BB1D1A703B1C10331A78B8
:100CF00040210A431A703B1C103319787F220A40A6
:100D00001A70FB1D1A783F231340D9B23B1C1033D5
:100D10003F220A4019783F2081430A431A703B1C46
:100D20001233BA1D117801220A401A703B1C12338B
:100D30001B78002B07D03B1C10331A78324B1A70EB
:100D4000324B7B6109E0304B3D221A703B1C103363
:100D50001A782D4B5A702E4B7B613B1C13330022AB
:100D60001A7013E03B1C13331B787A69D218FB1DF1
:100D70001B78F91D581C08702649CB5C13703B1C6E
:100D800013331A783B1C133301321A703A1C133296
:100D9000BB1D12781B789A42E4D3BB1D1B785B08FD
:100DA000DBB20133DBB2181CFFF768FEBB1D1B78FA
:100DB0005B08DBB2184A5B00D31801331A783B1C7E
:100DC0000C331A703B1C0C331B781B06DB0FDBB299
:100DD000191C124A2023D1543B1C0C331B785B0690
:100DE0005B0FDBB2191C0D4A2123D1543B1C0C3381
:100DF0001B781B071B0FDBB2191C084A2223D15496
:100E0000BD4606B080BDC0467C0200207D020020A9
:100E10007E0200204C050020AC0500207C0500204F
:100E200080B584B000AF021CFB1D1A70FB1D1B783F
:100E30002F2B03D9FB1D1B783B2B01D9FF234AE045
:100E40003B1C0C331A7840210A431A703B1C0C33AC
:100E50001A78802149420A431A70FB1D1A783F23F1
:100E60001340D9B23B1C0C333F220A4019783F2073
:100E700081430A431A703B1C0C331A78184B1A70C2
:100E8000174B3D225A700120FFF7F8FD154B1A78D9
:100E90003B1C08331A703B1C08331B781B06DB0F06
:100EA000DBB2191C104A2023D1543B1C08331B7899
:100EB0005B065B0FDBB2191C0B4A2123D1543B1C90
:100EC00008331B781B071B0FDBB2191C064A2223B1
:100ED000D154044B5B78181CBD4604B080BDC0469D
:100EE0007C020020AC0500207C05002080B584B089
:100EF00000AF021CFB1D1A70FB1D1B782F2B4BD95A
:100F0000FB1D1B783D2B47D83B1C0C331A78402126
:100F10008A431A703B1C0C3319787F220A401A70DE
:100F2000FB1D1A783F231340D9B23B1C0C333F22E0
:100F30000A4019783F2081430A431A70184B3D221A
:100F40001A703B1C0C331A78154B5A700120FFF7AE
:100F500095FD144B1A783B1C08331A703B1C083360
:100F60001B781B06DB0FDBB2191C0F4A2023D15460
:100F70003B1C08331B785B065B0FDBB2191C0A4A6B
:100F80002123D1543B1C08331B781B071B0FDBB2FA
:100F9000191C054A2323D154BD4604B080BDC04668
:100FA0007C020020AC0500207C05002080B586B0C6
:100FB00000AF3B20FFF734FF031C191C7C4A2B2396
:100FC000D1547B4A2B23D35C5B065B0EDAB23B1C0D
:100FD00013331A703420FFF723FF031C191C744AC3
:100FE0002723D1543B1C13331B78062B00D8D9E0A0
:100FF0003B1C08331A7840210A431A703B1C083303
:101000001A78802149420A431A703B1C08331A7827
:101010003F210A431A703B1C12333A1C13321178D9
:1010200001220A401A703B1C12331B78002B07D098
:101030003B1C08331A785F4B1A705F4B7B6109E0E9
:101040005C4B3D221A703B1C08331A78594B5A707E
:101050005A4B7B613B1C13331B785B08DBB20133BB
:10106000DBB2181CFFF70AFD7B69DA783B1D1A70AA
:101070007B691A793B1D5A70514A524BD25C3B1D19
:101080001B789A4200D17DE03B1D5B78042B00D198
:1010900078E04B4A9A239B00D35C002B72D07B698B
:1010A0001B78013BDAB27B691A707B691B787A691D
:1010B000101C00211A1C00F069FE031C1A1C3B1CAA
:1010C0001A803B1C1A787B691B787969CB181B78CE
:1010D0009A4257D13B1C5A787B691B780133796956
:1010E000CB181B789A424DD1354A374BD35C1A1C2A
:1010F000131CDB009B189B00314A9B18FB60F968AE
:101100007A693B1C13331B78081C111C1A1C01F054
:10111000ABFB2B4A2C4BD35C1A1C29482021131CF7
:10112000DB009B189B00C3185B183A1C1332127823
:10113000DA70FB681B780133DAB2FB681A70204A58
:10114000214BD35C0133D9B21D4A1F4BD1541C4AE9
:101150001D4BD35C102B03D9194A1B4B0021D154D2
:10116000174A9A239B00D35C013BD9B2144A9A23B5
:101170009B00D154124A154BD35C0133D9B2104AAB
:10118000124BD1543B1D19880D4A0E4BD152084BBE
:101190005B79002B09D0064B5B79013BDAB2044B3B
:1011A0005A7102E03A20FFF7A1FEBD4606B080BDAD
:1011B0007C0500207C020020AD050020AE0500204B
:1011C00010000020660200006502000069020000B5
:1011D00080B586B000AF3B1C0C331A7840210A431F
:1011E0001A703B1C0C3319787F220A401A703B1C82
:1011F0000C331A783F210A431A70614A614BD35C61
:10120000002B0CD13B1C02221A703B1C00225A708E
:101210003B1C1B783A1C101C191C00F05DFA584A44
:1012200099239B00D35C1A1C131CDB009B189B00AA
:10123000534A9B183B613B1C0F333A6912781A7072
:101240003B1C0E333A1C0F32117801220A401A70EF
:101250003B1C0E331B78002B07D03B1C0C331A7839
:10126000494B1A70494B7B6109E0474B3D221A708C
:101270003B1C0C331A78444B5A70454B7B613A69DE
:101280003B1C0F331B78101C00211A1C00F07EFD44
:10129000031C1A1C3B1D1A8079693A693B1C0F33E9
:1012A0001B78081C111C1A1C01F0DEFA7B691B78E4
:1012B0000133DAB27B691A703B1C0F331B783A1C7E
:1012C0000F32591C11707A69D3183A1D12781A70AE
:1012D0003B1C0F331B783A1C0F32591C11707A6972
:1012E000D3183A1D52781A703B1C0F331B785B08D9
:1012F000DBB20133DBB2181CFFF7C0FB3520FFF770
:10130000F5FD3B69DA783B1C08331A703B691A79A2
:101310003B1C08335A703B1C08335A781D4B5A72D9
:101320003B1C08335B78022B07D83B1C08335B78E7
:101330000133DAB23B1C08335A703B6903333A1C61
:10134000083212781A703B6904333A1C083252781A
:101350001A70104B07221A700E4B01229A710D4B16
:101360000122DA710C4B1A6B3B1C0F331B780A33CA
:101370009B00D218074BDA61BD4606B080BDC0465F
:10138000E0020020690200007C0200207D020020B3
:101390007E0200207C0500201006002080B588B069
:1013A00000AF3B1C14331A7840210A431A703B1CCF
:1013B000143319787F220A401A703B1C14331A78B0
:1013C0003F210A431A70544A544BD25A3B1C1033E3
:1013D0001A803B1C103304225A703B1C083307222E
:1013E0001A703B1C083322225A703B1C083311220E
:1013F0009A703B1C10331A783B1C0833DA703B1C84
:1014000010335A783B1C08331A713B1C08330222F4
:101410005A713B1C083301229A713B1C0833BB6193
:101420003B1C1733BA6912781A703B1C16333A1CEE
:101430001732117801220A401A703B1C16331B78B0
:10144000002B07D03B1C14331A78354B1A70354BE0
:10145000FB6109E0324B3D221A703B1C14331A78B1
:101460002F4B5A70304BFB61BA693B1C17331B780A
:10147000101C00211A1C00F089FC031C1A1C3B1DC7
:101480001A80F969BA693B1C17331B78081C111CB8
:101490001A1C01F0E9F9FB691B780133DAB2FB6928
:1014A0001A703B1C17331B783A1C1732591C1170E9
:1014B000FA69D3183A1D12781A703B1C17331B783F
:1014C0003A1C1732591C1170FA69D3183A1D527818
:1014D0001A703B1C17331B785B08DBB20133DBB29D
:1014E000181CFFF7CBFA3520FFF700FD0F4B072242
:1014F0001A700E4B01229A710C4B0722DA710C4BB9
:101500001A6B3B1C17331B780A339B00D218074B0E
:10151000DA61BD4608B080BD100000206602000000
:101520007C0200207D0200207E0200207C0500203D
:101530001006002090B585B000AF786039607A68F9
:10154000414BD35C002B11D17A6899239B00002179
:10155000D1547A683D4B0021D1547A689A239B007C
:101560001121D1547A68384B0021D1547A689A23DA
:101570009B00D35C002B01D1002361E07A68334BE0
:10158000D35C1A1C3B6819787C682020131CDB0094
:101590009B189B00E3181B180A1CDA707A682B4B07
:1015A000D35C1A1C131CDB009B189B007A68D318B1
:1015B000FB603B681A78FB681A70FB6801333A6875
:1015C00052781A70FB6802333A6892781A70FB6896
:1015D00003333A6812791A70FB6804333A68527917
:1015E0001A70FB68591D3B68DA683B689B79081CD8
:1015F000111C1A1C01F038F97A68144BD35C0133C2
:10160000D9B27A68114BD1547A68104BD35C102B45
:1016100003D97A680D4B0021D1547A680A4BD35C08
:101620000133D9B27A68084BD1547A689A239B0067
:10163000D35C013BD9B27A689A239B00D154012331
:10164000181CBD4605B090BD69020000650200008F
:1016500080B582B000AF786039603A681D4BD35CCA
:10166000002B01D1002331E03A6899239B00D35C21
:101670001A1C131CDB009B189B003A68D2187B686D
:101680009A607B689B681A787B681A707B689B6895
:101690005A787B685A707B689B689A787B689A70E6
:1016A0007B689B68DA787B681A717B689B681A791B
:1016B0007B685A717B689B685A1D7B68DA607B681F
:1016C0001B78053BDAB27B689A710123181CBD4672
:1016D00002B080BD6902000080B586B000AF7860BE
:1016E0000A1CFB1C1A70254B1B79002B0AD0244ABC
:1016F000244BD35C012B05D9214B181C00F07CF83E
:10170000002337E0FB1C1B783B2B01D9002331E081
:10171000FB1C1B780533DAB23B1C08331A703B1CE8
:10172000083322225A703B1C083311229A70144A43
:10173000154BD35C0133D9B2114A134BD154104A23
:10174000114BD25C3B1C08331A713B1C083301223D
:101750005A713B1C0833FA1C12789A713B1C0833EF
:101760007A68DA60064A3B1C0833101C191CFFF724
:10177000E1FE031C181CBD4606B080BD7C050020A0
:10178000E0020020690200006602000080B584B01B
:1017900000AF3A1C154B101C191CFFF759FF031C16
:1017A000002B0BD03B1CDB68181C002101F066FBF2
:1017B0000E4B181C00F020F8012312E00B4A99236D
:1017C0009B000021D154094A094B0021D154074AFA
:1017D0009A239B001121D154044A064B0021D15475
:1017E0000023181CBD4604B080BDC0461000002078
:1017F000650200006902000090B583B000AF786018
:101800007A68374BD35C002B54D07A689A239B00BC
:10181000D35C0133D9B27A689A239B00D1547A6899
:101820002F4BD35C013BD9B27A682D4BD1547A68E7
:1018300099239B00D35C1A1C131CDB009B189B0094
:101840007A68D1187A6899239B00D35C1A1C7C684B
:101850002020131CDB009B189B00E3181B18DB786F
:10186000081C00211A1C01F029F87A6899239B00B2
:10187000D35C1A1C78682021131CDB009B189B008A
:10188000C3185B180022DA707A6899239B00D35C36
:101890000133D9B27A6899239B00D1547A6899238D
:1018A0009B00D35C102B17D97A6899239B000021E9
:1018B000D15411E07A6899239B000021D1547A68B1
:1018C000084B0021D1547A689A239B001121D154EE
:1018D0007A68034B0021D154BD4603B090BDC04689
:1018E000690200006502000080B588B000AF786032
:1018F0000023FB610023BB6100237B6100233B616C
:101900000023FB60654B5A680C231340FB61FB69A5
:10191000042B07D0082B09D0002B30D17B68604AFC
:101920001A6030E07B685E4A1A602CE05B4B5A68B4
:10193000F0239B031340BB61584B5A6880235B0222
:1019400013407B61BB699B0C0233BB617B69002B3D
:1019500005D1BB69534A5A437B681A6013E04F4B69
:10196000DA6A0F23134001333B614D48396902F0B5
:10197000A1FD031CBA695A437B681A6003E07B68C7
:10198000474A1A60C046454B5A68F0231340FB6132
:10199000FB691B09FB61444AFB69D3181B78DBB266
:1019A000FB607B681A68FB68DA407B685A603B4BD7
:1019B0005A68E023DB001340FB61FB691B0AFB61F3
:1019C000394AFB69D3181B78DBB2FB607B685A6825
:1019D000FB68DA407B689A60304B1A6B80235B00AF
:1019E000134003D17B68314ADA6010E02B4B5A6810
:1019F0008023DB01134005D17B689B685A087B6814
:101A0000DA6004E07B689B689A087B68DA60234BA5
:101A10001A6B4023134003D17B68254A1A6103E007
:101A20007B68802212021A611C4B1A6B1023134030
:101A300003D17B681A4A5A6103E07B681A687B68A5
:101A40005A61164B1A6B0323134004D17B689A68C2
:101A50007B689A611EE0114B1A6B03231340012B24
:101A600004D17B681A687B689A6113E00B4B1A6B90
:101A700003231340022B04D17B68802212029A6157
:101A800008E0064B1A6B03231340032B02D17B683B
:101A9000034A9A61BD4608B080BDC04600100240AE
:101AA00000127A0000093D0000000020809FD50050
:101AB0001280000080B582B000AF78600A1CFB1C69
:101AC0001A70FB1C1B78002B06D0084B074A516983
:101AD0007A680A435A6106E0044B044A52697968FD
:101AE000C9430A405A61BD4602B080BD00100240A1
:101AF00080B582B000AF78600A1CFB1C1A70FB1C1A
:101B00001B78002B06D0084B074A91697A680A4374
:101B10009A6106E0044B044A92697968C9430A4015
:101B20009A61BD4602B080BD0010024080B582B00F
:101B300000AF78600A1CFB1C1A70FB1C1B78002B82
:101B400006D0084B074AD1697A680A43DA6106E091
:101B5000044B044AD2697968C9430A40DA61BD4638
:101B600002B080BD0010024080B582B000AF80237B
:101B70009B02181C0121FFF79DFF3B1C00221A71DC
:101B80003B1C00229A713B1C03225A713B1C002211
:101B9000DA713B1CC022D2001A609023DA053B1C8C
:101BA000101C191C01F042FB3B1C01221A713B1C4A
:101BB00002221A609023DB05181C022101F0D2FBDF
:101BC0009023DA053B1C101C191C01F02FFB3B1C59
:101BD00002221A713B1C0122DA713B1CFC221A60A2
:101BE0009023DA053B1C101C191C01F01FFBBD469D
:101BF00002B080BD80B584B000AF184B00221A63DC
:101C00008023DB02181C0121FFF772FF3B1D181C0B
:101C100001F002FE3B1D124A5A60124A3B1D101C85
:101C2000191C01F081FD0F4B181C012101F00CFE65
:101C30003B1C16221A703B1C02225A703B1C0122CC
:101C40009A703B1C181C01F0BDFE064B181C0121AC
:101C5000012201F019FEBD4604B080BD100600202F
:101C600080BB00000048014080B500AF054B181C48
:101C7000012101F02DFE044B1B6B5A1C024B1A6311
:101C8000BD4680BD004801401006002080B500AF71
:101C900001200121FFF72CFF214B214A1268C021AE
:101CA000C9000A431A6001200121FFF703FF1D4B01
:101CB0001D4A9A601B4B1D4ADA601A4B02225A6079
:101CC000184B962292011A60194B174A9A60184BCA
:101CD000184ADA60164B02225A60154BB222D20023
:101CE0001A60154B154A9A60134B154ADA60124B6D
:101CF000144A1A60144B154A9A60134B144ADA605E
:101D0000114BA0221A60104B802252005A600E4BD9
:101D10000D4A126801210A431A60BD4680BDC046C3
:101D2000000001401C0002400C300140AC050020C6
:101D3000300002407C02002044000240283801406C
:101D4000A4080020902000005800024024380140E0
:101D50009407002080B500AF80231B01181C0121CF
:101D6000FFF7E4FEC0235B00181C01F0C1FD7F20DB
:101D700001F0D8FD7F2001F011FE06200F21002286
:101D800000F024F901F0EAFDBD4680BD80B586B0C3
:101D900000AF7860FB1C1970BB1C1A703B1C103321
:101DA00000221A803B1C0C33012252421A803B1C39
:101DB000173300221A7077E03B1C17331A78FB1C8C
:101DC0001B78D3187A68D3181A783B1C10331A7012
:101DD0003B1C103300225A703B1C0C331A883B1CEE
:101DE00010331B8853409AB23B1C0C331A803B1CA7
:101DF000163300221A704BE03B1C0C3359783B1C05
:101E0000153301220A401A703B1C0C3319783B1C15
:101E1000143301220A401A703B1C0C335B785B08B8
:101E2000DAB23B1C0C335A703B1C0C331B785B083A
:101E3000DAB23B1C0C331A703B1C15331B78002B99
:101E400007D03B1C0C331B78803BDAB23B1C0C33B5
:101E50001A703B1C14331B78002B12D03B1C0C3324
:101E60001B7801225340DAB23B1C0C331A703B1C26
:101E70000C335B78602252425340DAB23B1C0C3385
:101E80005A703B1C16331A783B1C163301321A70F9
:101E90003B1C16331B78072BAED93B1C17331A7823
:101EA0003B1C173301321A703A1C1732BB1C1278D4
:101EB0001B789A4200D27FE73B1C0C331B88181C0E
:101EC000BD4606B080BDC04680B582B000AF2C4A8A
:101ED00034230021D1542A4A2A230021D154284AEC
:101EE0002B230021D154264A2C230021D154FB1D41
:101EF00000221A703DE0FB1D1A78214920238A1820
:101F0000D3180322DA71FB1D1A781D4920238A1881
:101F1000D318FA1D12781A71FB1D1A781849131C70
:101F20005B009B189B00CB1800225A70FB1D1A788F
:101F30001349131C5B009B189B00CB18083300222D
:101F40001A60FB1D1A780E49131C5B009B189B003E
:101F5000CB1800225A60FB1D1A780949131C5B003C
:101F60009B189B0000225A54FB1D1A78FB1D01325E
:101F70001A70FB1D1B78022BBDD9BD4602B080BD77
:101F80001006002080B582B000AFFB1D00221A7041
:101F900010E0FB1D1A780C4920238A18D3181B79EE
:101FA000032B02D0FB1D1B7809E0FB1D1A78FB1DDB
:101FB00001321A70FB1D1B78022BEAD90323181C6F
:101FC000BD4602B080BDC0461006002080B588B076
:101FD00000AFB9607A603B1C0F33021C1A70844A50
:101FE0002A23D35C022B0DD9FFF7CCFF031C191C4D
:101FF0007F4A2A23D1547E4A2A23D35C022B1AD942
:102000000023F0E07A4A2A23D35C1A1C7849202363
:102010008A18D3181B79022B0DD9FFF7B3FF031CC5
:10202000191C734A2A23D154714A2A23D35C022BE8
:1020300001D90023D7E06E4B1A6BBB68D318BB6184
:102040006B4A2C23D25C3B1C1F3301321A703B1CA1
:102050001F331B78022B03D93B1C1F3300221A703D
:10206000634A391C1F312C230978D154604A342328
:10207000D35C002B66D03B1C1E333A1C1F321278F7
:102080001A703B1C1E331B78002B07D03B1C1E33E1
:102090001A783B1C1E33013A1A7003E03B1C1E33B6
:1020A00002221A703B1C1E331A78514920238A18C9
:1020B000D318DB791A1C4E49131C5B009B189B003C
:1020C000CB185A68BB699A4207D9494A2B23D35C7B
:1020D0003A1C1F3212789A4204D13B1C1E33032251
:1020E0001A7029E03B1C1F3319783B1C1E331A78E9
:1020F0003F4820238218D318DA793D48202341181D
:10210000CB18DA713B1C1E331A78394920238A1800
:10211000D3180322DA713B1C1F331B78002B07D026
:102120003B1C1F331A783B1C1F33013A1A7003E023
:102130003B1C1F3302221A703B1C1E331B78022BE0
:102140009FD905E0FFF7C0FE3B1C1F3300221A7029
:102150003B1C1F331978264A2A23D35C1A1C2448B7
:1021600020238218D3181A79214820234118CB182C
:10217000DA711F4A2A23D35C1A1C1D4920238A18AE
:10218000D31803221A71FFF7FDFE031C191C184A0D
:102190002A23D1543B1C1F331A78154920238A184F
:1021A000D318DB791A1C131C5B009B189B00104A88
:1021B0009B187B617B69BA695A607B693A1C0F3254
:1021C00012785A707B697A689A607B6901221A706A
:1021D000074A3423D35C0133D9B2054A3423D1549E
:1021E000034A3423D35C181CBD4608B080BDC046EA
:1021F0001006002080B584B000AF0A1CFB1D011C36
:102200001970BB1D1A703B1C0F33A44934228A5C21
:102210001A703B1C0E33A1492B228A5C1A7031E1E3
:102220003B1C0E331A789D4920238A18D318DB797A
:102230001A1C9A49131C5B009B189B00CB185B78F7
:10224000FA1D12789A4200D005E1BB1D1B78072BBE
:1022500000D9FEE09A00924BD3181B689F460123D9
:1022600017E13B1C0F3301221A703B1C0E331A7806
:102270008A4920238A18D318DB791A1C8749131C32
:102280005B009B189B0000225A543B1C0E331A78AB
:10229000824920238A18D318DB79191C3B1C0E3382
:1022A0001A787E4820238218D318DA797B482023B5
:1022B0004118CB181A713B1C0E331A78774920232A
:1022C0008A18D318D979754A2A23D1543B1C0D3367
:1022D0003A1C0E3212781A703B1C0C333A1C0E3228
:1022E00012781A7031E03B1C0C331B78002B07D09E
:1022F0003B1C0C331A783B1C0C33013A1A7003E078
:102300003B1C0C3302221A703B1C0D3319783B1C0A
:102310000C331A78614820238218D318DA795F4881
:1023200020234118CB18DA713B1C0D331B78002B8E
:1023300007D03B1C0D331A783B1C0D33013A1A7041
:1023400003E03B1C0D3302221A70544A2B23D35C4A
:102350003A1C0C3212789A42C5D1504A2B23D35CD6
:102360001A1C4E4920238A18D3180322DA714B4ACB
:102370002B23D35C0133D9B2484A2B23D154474A8B
:102380002B23D35C022B03D9444A2B230021D154A5
:10239000424A3423D35C013BD9B2404A3423D1545E
:1023A0003E4A3423D35C022B02D9FFF78DFD52E065
:1023B00051E03B1C0E331A78384920238A18D31871
:1023C000DB791A1C131C5B009B189B00334A9B187B
:1023D0005FE03B1C0E331A78304920238A18D3184B
:1023E000DB791A1C2D49131C5B009B189B00CB1832
:1023F0005B684EE03B1C0E331A78284920238A186C
:10240000D318DB791A1C2549131C5B009B189B0011
:10241000CB185A68214B1B6BD31A3AE03B1C0E3386
:102420001A781E4920238A18D318DB791A1C1B49F5
:10243000131C5B009B189B00CB1808331B6828E01B
:10244000164A3423D35C1A1C3B1C0F331B78D31A57
:102450001FE000231DE03B1C0E333A1C0E321278A5
:1024600001321A703B1C0E331B78022B03D93B1C24
:102470000E3300221A703B1C0F331A783B1C0F33AB
:10248000013A1A703B1C0F331B78002B00D0C7E6B3
:102490000023181CBD4604B080BDC04610060020B5
:1024A0006047000880B584B000AF3960FB1D011C97
:1024B0001970BB1D1A703B1C0F33AE4934228A5C65
:1024C0001A703B1C0E33AB492B228A5C1A7046E112
:1024D0003B1C0E331A78A74920238A18D318DB79BE
:1024E0001A1CA449131C5B009B189B00CB185B783B
:1024F000FA1D12789A4200D01AE13B1C0E331A786A
:102500009C4920238A18D318DB791A1C9949131C7B
:102510005B009B189B00CB1808331A683B689A42F3
:1025200000D005E1BB1D1B78072B00D9FEE09A0007
:10253000914BD3181B689F46012317E13B1C0F33B7
:1025400001221A703B1C0E331A788A4920238A18FC
:10255000D318DB791A1C8749131C5B009B189B005E
:1025600000225A543B1C0E331A78824920238A18C1
:10257000D318DB79191C3B1C0E331A787D482023B5
:102580008218D318DA797B4820234118CB181A71A6
:102590003B1C0E331A78774920238A18D318D9792F
:1025A000744A2A23D1543B1C0D333A1C0E32127844
:1025B0001A703B1C0C333A1C0E3212781A7031E040
:1025C0003B1C0C331B78002B07D03B1C0C331A78B8
:1025D0003B1C0C33013A1A7003E03B1C0C33022203
:1025E0001A703B1C0D3319783B1C0C331A78614868
:1025F00020238218D318DA795E4820234118CB189B
:10260000DA713B1C0D331B78002B07D03B1C0D33BC
:102610001A783B1C0D33013A1A7003E03B1C0D3352
:1026200002221A70534A2B23D35C3A1C0C321278C4
:102630009A42C5D14F4A2B23D35C1A1C4D49202303
:102640008A18D3180322DA714A4A2B23D35C013348
:10265000D9B2484A2B23D154464A2B23D35C022BB0
:1026600003D9444A2B230021D154424A3423D35C5A
:10267000013BD9B23F4A3423D1543E4A3423D35C80
:10268000022B02D9FFF720FC52E051E03B1C0E3335
:102690001A78384920238A18D318DB791A1C131C9E
:1026A0005B009B189B00334A9B185FE03B1C0E337A
:1026B0001A78304920238A18D318DB791A1C2D493F
:1026C000131C5B009B189B00CB185B684EE03B1C07
:1026D0000E331A78274920238A18D318DB791A1C5D
:1026E0002449131C5B009B189B00CB185A68214B94
:1026F0001B6BD31A3AE03B1C0E331A781D4920237A
:102700008A18D318DB791A1C1A49131C5B009B1812
:102710009B00CB1808331B6828E0164A3423D35C8F
:102720001A1C3B1C0F331B78D31A1FE000231DE03B
:102730003B1C0E333A1C0E32127801321A703B1CCD
:102740000E331B78022B03D93B1C0E3300221A7068
:102750003B1C0F331A783B1C0F33013A1A703B1C99
:102760000F331B78002B00D0B2E60023181CBD46A7
:1027700004B080BD100600208047000880B584B0FA
:1027800000AF7860364B1B6B7A68D31ABB603B1C7A
:102790000F33334934228A5C1A703B1C0E333049A4
:1027A0002B228A5C1A7038E03B1C0E331A782C49B5
:1027B00020238A18D318DB791A1C3B1C0E33197896
:1027C000274820234118CB18DB79191C24480B1CFF
:1027D0005B005B189B00C3185968BB68C918204888
:1027E000131C5B009B189B00C31859603B1C0E33E5
:1027F0003A1C0E32127801321A703B1C0E331B78D1
:10280000022B03D93B1C0E3300221A703B1C0F33E2
:102810001A783B1C0F33013A1A703B1C0F331B789C
:10282000002BC1D10E4B7A681A630E4BDA68BB6875
:10283000D2180C4BDA600B4B1A69BB68D218094BE3
:102840001A61084B5A69BB68D218064B5A61054B8E
:102850009A69BB68D218034B9A61BD4604B080BD2B
:10286000100600207C05002080B586B000AFF8601F
:10287000B960FB1D1A703B1C173300221A7012E05E
:102880003B1C17331B78FA68D3183A1C173212789E
:10289000B9688A1812781A703B1C17333A1C173221
:1028A000127801321A703A1C1732FB1D12781B780D
:1028B0009A42E5D3BD4606B080BDC04680B584B01F
:1028C00000AF7860FB1C1970BB1C1A703B1C0F33E7
:1028D00000221A700EE03B1C0F331B787A68D31865
:1028E000FA1C12781A703B1C0F333A1C0F32127804
:1028F00001321A703A1C0F32BB1C12781B789A42B4
:10290000E9D3BD4604B080BDF0B589B000AFF86032
:10291000B960FB1D1A703B1C1F3300221A7021E0A6
:102920003A1C1F32FB1D12781B789A420CD23B1CBA
:102930001F331B783A1C1F321278B9688A18117835
:102940003A1C1032D15406E03B1C1F331B783A1C52
:1029500010320021D1543B1C1F331A783B1C1F330B
:1029600001321A703B1C1F331B78072BD8D9FB1D73
:102970001B78082B4CD89A00574BD3181B689F46DE
:102980003B1C1F3303221A703B1C1E3302221A7099
:1029900046E03B1C1F3305221A703B1C1E330322EA
:1029A0001A703DE03B1C1F3308221A703B1C1E337B
:1029B00004221A7034E03B1C1F330A221A703B1C9D
:1029C0001E3305221A702BE03B1C1F330D221A7098
:1029D0003B1C1E3307221A7022E03B1C1F330F22C0
:1029E0001A703B1C1E3308221A7019E03B1C1F335F
:1029F00011221A703B1C1E3309221A7010E03B1C76
:102A00001F3314221A703B1C1E330A221A7007E06F
:102A10003B1C1F3300221A703B1C1E3300221A700D
:102A2000FA683B1C1E331B78101C191C00F0A6F81A
:102A30004AE03B1C1F331A783B1C1F33013A1A70C3
:102A40003B1C1E333A1C1F32127852081A703B1C72
:102A50001F331A780123134018D03B1C1E331B78F8
:102A6000FA68D5183B1C1F331B781C4ADB00D318AF
:102A70005C681B683A1C1032101C1A1C231C00F0E6
:102A80002FF8031C1B01DBB22B701DE03B1C1E3317
:102A90001B78FA68D5183B1C1E331B78FA68D318CC
:102AA0001E783B1C1F331B780C4ADB00D3185C6874
:102AB0001B683A1C1032101C1A1C231C00F010F862
:102AC000031CF318DBB22B703B1C1F331B78002B4D
:102AD000AFD1BD4609B0F0BDA0470008C846000808
:102AE000F0B587B000AFF8603A607B603B1C1733ED
:102AF00000221A703B1C163301221A7031E0FB6869
:102B00005C681B687A68A24205D87A68A2420DD137
:102B10003A689A420AD93B1C163300221A703B1CB1
:102B200017333A1C173212781A701AE03B1C17330D
:102B30001A783B1C173301321A70FB6819685A68FF
:102B40003B687C680D1C161CED1AA6412B1C341C1E
:102B5000FA68136054603B1C16333A1C1632127824
:102B60001A703B1C16331B78002BC8D13B1C173343
:102B70001B78181CBD4607B0F0BDC04680B584B0B8
:102B800000AF78600A1CFB1C1A703B1C0F3300223C
:102B90001A700DE03B1C0F331B787A68D3180022A3
:102BA0001A703B1C0F331A783B1C0F3301321A701A
:102BB0003A1C0F32FB1C12781B789A42EAD3BD46AE
:102BC00004B080BDB0B590B000AFF862B9623B1CF4
:102BD00027331A70002200233A637B633B1C2733A0
:102BE0001B780A2B36D89A00684BD3181B689F466F
:102BF0003B1C3F3301221A7030E03B1C3F33022262
:102C00001A702BE03B1C3F3303221A7026E03B1C5A
:102C10003F3304221A7021E03B1C3F3305221A7017
:102C20001CE03B1C3F3305221A7017E03B1C3F336E
:102C300006221A7012E03B1C3F3307221A700DE087
:102C40003B1C3F3308221A7008E03B1C3F3308222C
:102C50001A7003E03B1C3F3300221A703A1C3E32CC
:102C60003B1C27331B78DB1813703B1C3D333A1C8D
:102C7000273212781A7060E03B1C3D331A783B1CF7
:102C80003D33013A1A70386B796BB861F9613B1CBE
:102C90003D331B78BA6AD3181B781B09DBB23B6142
:102CA00000237B613B1C3E333A1C3E321278013AD2
:102CB0001A703B1C3E331B78354ADB00D3181A6868
:102CC0005B683869796901F045FC021C0B1CB86926
:102CD000F96912184B413A637B63396B7A6BB960BF
:102CE000FA603B1C3D331B78BA6AD3181B781C1C56
:102CF00000231D1C0F23221C1A403A600023281CAD
:102D0000184078603B1C3E333A1C3E321278013A40
:102D10001A703B1C3E331B781D4ADB00D3181A681F
:102D20005B683868796801F015FC021C0B1CB868F8
:102D3000F96812184B413A637B633B1C3D331B78A7
:102D4000002B99D13B1C3E3300221A7012E03B1C31
:102D50003E331B78FA6AD3183A1C3E321278391C7B
:102D600030318A5C1A703B1C3E331A783B1C3E3370
:102D700001321A703A1C3E323B1C3F3312781B78EA
:102D80009A42E4D3BD4610B0B0BDC046C447000867
:102D9000C846000880B500AF304B00221A80FFF70C
:102DA00093F8FEF773FFFEF7DFFEFEF723FF00F058
:102DB0005FFEFDF787F9FEF7CDFF294A0A23FF33AF
:102DC000D35C002B13D0264A82235B00D258254BBC
:102DD0005B689A4218D0224A85235B000121D154B6
:102DE000204B59681E4A82235B00D1500CE01C4ADC
:102DF00082235B00D2581B4B5B689A4204D0184A6E
:102E00000A23FF330121D154FDF7E0F9144A852349
:102E10005B00D35C002B01D000F0F6FE124A812348
:102E20005B00D35C002B01D001F0C8F90F4A4823A6
:102E3000FF33D35C002B01D001F050F90C4A34234E
:102E4000D35C002B01D000F0F5F80A4A0A4BD35CA2
:102E5000002B02D0FEF79AFCAFE7AEE74806002051
:102E60009407002058000240A40800204C060020CF
:102E700010060020100000206902000080B582B01A
:102E800000AF78600A1CFB1C1A707B6801331B784A
:102E90001E2B49D89A00264BD3181B689F467B6887
:102EA000181C0121022201F0C3FA3DE07B68181CC6
:102EB0000121002201F0BCFA36E07B681B787A68B9
:102EC000101C191CFEF708FC2EE0FB1C1B78002BC5
:102ED0000AD17B681B78032B12D17B68181C012157
:102EE000002201F0A5FA1FE0FB1C1B78012B07D183
:102EF0007B681B787A68101C191CFEF7EDFB13E049
:102F000012E07B681B78022B06D17B68181C01211C
:102F1000002201F08DFA06E07B681B787A68101CAD
:102F2000191CFEF7D9FBC046BD4602B080BDC046A5
:102F3000F047000880B586B000AF78607B68DB782A
:102F4000032B70D17B68DB6801331B781C2B63D1AA
:102F50007B68DB681B78022B02D0062B3AD062E03C
:102F600001F0A8F8031C002B2ED1304B1B6B181C52
:102F70000A2101F09FFA031C7B613B1C0C330622E3
:102F80001A703B1C0C331C225A703B1C14331A78E9
:102F90003B1C0C339A703B1C14335A783B1C0C338B
:102FA000DA703B1C14339A783B1C0C331A713B1CAF
:102FB0001433DA783B1C0C335A713B1C0C33181C4D
:102FC0000121002201F034FA194A4823FF3301217C
:102FD000D15420E07B68DB689A783B1C0833DA70B8
:102FE0007B68DB68DA783B1C08339A707B68DB68A7
:102FF0001A793B1C08335A707B68DB685A793B1C92
:1030000008331A70BA68131C9B009B185B00181CCD
:10301000FFF7B4FBC04606E07B68DB68181C0121A3
:10302000FFF72CFFC046BD4606B080BD100600204D
:103030004C06002080B582B000AF204A2B23D35C21
:103040001A1C1E4920238A18D318DB791A1C131C5A
:103050005B009B189B00194A9B187B60174B1A6BEF
:103060007B685B689A4225D37B681B78002B1BD05A
:103070007B685B78062B02D0072B0ED014E006206D
:103080000C210022FEF7A2FF7F2000F075FC0BE070
:103090000B4B181CFEF7B0FB00E0C046084A094B7A
:1030A000D35C002BF4D1C0467B685B78181C0121EF
:1030B000FFF7A0F8BD4602B080BDC0461006002054
:1030C000E0020020690200000C488546002103E070
:1030D0000B4B5B58435004310A480B4B42189A4241
:1030E000F6D30A4A02E0002313600432084B9A42E6
:1030F000F9D300F011F8FFF74DFEFEE700100020B5
:10310000704800080000002010000020100000207F
:10311000A8090020FEE7000080B500AF1B4B1B4A4A
:10312000126801210A431A60184B184A5168184A5C
:103130000A405A60154B154A1168164A0A401A602F
:10314000124B124A1168144A0A401A600F4B0F4A78
:103150005168124A0A405A600C4B0C4AD26A0F213D
:103160008A43DA62094B094A116B0D4A0A401A6315
:10317000064B064A526B01218A435A63034B0022D5
:103180009A6000F00FF8BD4680BDC04600100240B6
:103190000CB8FF08FFFFF6FEFFFFFBFFFFFFC0FFBD
:1031A000ACFEFFFF80B500AF1D4B11221A601D4B16
:1031B0001C4A52685A601B4B1A4A52685A60194B93
:1031C000184A5168184A0A405A60164B154A526804
:1031D000A02189030A435A60124B124A12688021C7
:1031E00049040A431A60C0460E4B1A6880239B04A8
:1031F0001340F9D00B4B0B4A526803218A435A60A3
:10320000084B084A526802210A435A60C046054BDF
:103210005A680C231340082BF9D1BD4680BDC04627
:103220000020024000100240FFFFC0FF80B586B0C2
:1032300000AF7860396000237B6100233B6100238D
:10324000FB6000237B6185E07B690122101C9840B4
:10325000031C3B613B681B683A691340FB60FA68DA
:103260003B699A4273D13B681B79012B03D03B68C1
:103270001B79022B38D17B689B687A695200032145
:10328000081C9040021CD2431A407B689A607B68FD
:103290009A683B685B79191C7B695B00081C984045
:1032A000031C1A437B689A607B689B889BB27A698F
:1032B00092B20121081C9040021C92B2D24392B2F9
:1032C00013409AB27B689A807B689B889AB23B686D
:1032D0009B79191C7B699BB2081C9840031C9BB20C
:1032E00013439AB27B689A807B681B687A695200A4
:1032F0000321081C9040021CD2431A407B681A60CC
:103300007B681A683B681B79191C7B695B00081C89
:103310009840031C1A437B681A607B68DB687A69F3
:1033200092B252000321081C9040021CD2431A4062
:103330007B68DA607B68DA683B68DB79191C7B693B
:103340005B00081C9840031C1A437B68DA607B69A9
:1033500001337B617B690F2B00D875E7BD4606B052
:1033600080BDC04680B582B000AF78600A1CBB1C2F
:103370001A807B68BA1C12889A82BD4602B080BD52
:1033800090B585B000AF7860BB1C19807B1C1A70AB
:103390000023FB600023BB607B1C1A78BB1C1988D0
:1033A00007230B409B00111C99400B1CFB60BB1CAE
:1033B0001B88DB089BB21A1CBB1C1B88DB089BB25A
:1033C000191C7B6808318900CB58B91C0888072173
:1033D000014089000F20041C8C40211CC943194066
:1033E0007B6808329200D150BB1C1B88DB089BB263
:1033F0001A1C7B6808329200D258FB681343BB60EA
:10340000BB1C1B88DB089BB21A1C7B68083292002D
:10341000B968D150BD4605B090BDC04680B58CB0EE
:1034200000AF786039600023FB620023BB62002399
:103430007B627B681B680122191C91430A1C7B6814
:103440001A607B685B687B627A6A474B13407B62D9
:103450003B689B687A6A13437B627B687A6A5A602E
:103460007B681B687B627A6A404B13407B623B68D7
:103470005A683B68DB681A433B681B6913437A6AE6
:1034800013437B627B687A6A1A607B689B687B6205
:103490007A6A374B13407B623B685B697A6A1343F5
:1034A0007B627B687A6A9A603B1C0833181CFEF7C3
:1034B0001BFA7A682F4B9A4204D13B1C08339B6954
:1034C000BB6203E03B1C08339B68BB627B681A68E5
:1034D00080231B02134014D0BB6A5A003B681B6850
:1034E000101C191C00F0E6FF031CFB62BB6A5A00AB
:1034F0003B681B68101C191C01F020F80B1C7B6238
:1035000010E03B681B68B86A191C00F0D3FF031C6D
:10351000FB623B681B68BA6A101C191C01F00EF8AC
:103520000B1C7B623B681B685A087B6A9A4202D874
:10353000FB6A0133FB627B681A6880231B0213401D
:103540000AD0FA6A0F2313405B087B62FA6A0A4BBF
:103550001A407B6A1343FB62FB6A9AB27B689A81CA
:10356000BD460CB080BDC046FFCFFFFFF3E9FFFFB3
:10357000FFFCFFFF00380140F0FF000080B582B083
:1035800000AF78607B68962292011A607B68002207
:103590005A607B6800229A607B680022DA607B6850
:1035A0000C221A617B6800225A61BD4602B080BDC0
:1035B00080B582B000AF78600A1CFB1C1A70FB1C3F
:1035C0001B78002B06D07B681B6801221A437B689E
:1035D0001A6007E07B681B680122191C91430A1CD2
:1035E0007B681A60BD4602B080BDC04680B582B01F
:1035F00000AF78600A1CFB1C1A70FB1C1B78002BA8
:1036000007D07B685B68802212041A437B685A608B
:1036100005E07B685A68034B1A407B685A60BD46D8
:1036200002B080BDFFFF7FFF80B582B000AF786041
:1036300039607B685B691B0E1A067B685A617B6880
:103640005A693B681A437B685A61BD4602B080BD27
:1036500080B588B000AFF860B960FB1D1A70002318
:10366000BB6100237B6100233B610023FB61FB689E
:10367000FB61BB689BB21B0A9BB2BB61BA68FF23AC
:1036800013407B617B690122111C99400B1C3B613B
:10369000BB69022B03D1FB690433FB6105E0BB6905
:1036A000032B02D1FB690833FB61FB1D1B78002B48
:1036B00006D0FB69FA6911683A690A431A6006E0A4
:1036C000FB69FA6912683969C9430A401A60BD4644
:1036D00008B080BD80B584B000AF786039603B1C15
:1036E0000F3300221A707B68DB693A68134004D0FC
:1036F0003B1C0F3301221A7003E03B1C0F330022E6
:103700001A703B1C0F331B78181CBD4604B080BDDB
:1037100080B582B000AF786039607B683A681A6221
:10372000BD4602B080BDC04680B584B000AF7860B1
:1037300039603B1C0E3300221A803B1C0E337A6822
:1037400012881A807A682D4B9A4208D07A688023B2
:10375000DB059A4203D07A68294B9A4210D13B1C70
:103760000E333A1C0E32128870218A431A803B684D
:1037700059883B1C0E333A1C0E3212880A431A80B9
:103780007A68204B9A4210D03B1C0E333A1C0E3202
:1037900011881D4A0A401A803B6819893B1C0E3368
:1037A0003A1C0E3212880A431A807B683A1C0E3289
:1037B00012881A803B685A687B68DA623B681A880C
:1037C0007B681A857A680D4B9A420BD07A680F4B4A
:1037D0009A4207D07A680E4B9A4203D07A680D4B12
:1037E0009A4204D13B689B7A1A1C7B681A867B68D4
:1037F00001229A82BD4604B080BDC046002C014023
:103800000004004000100040FFFCFFFF00400140AA
:10381000004401400048014080B582B000AF7860AC
:103820007B68012252425A607B6800221A807B68C2
:1038300000221A817B6800225A807B6800229A72DB
:10384000BD4602B080BDC04680B582B000AF786092
:103850000A1CFB1C1A70FB1C1B78002B08D07B6811
:103860001B889BB2012213439AB27B681A8007E03F
:103870007B681B889BB2012293439AB27B681A80B3
:10388000BD4602B080BDC04680B582B000AF786052
:10389000BB1C19807B1C1A707B1C1B78002B09D069
:1038A0007B689B899AB2BB1C1B8813439AB27B68C6
:1038B0009A810AE07B689B899BB2BA1C1288D2432A
:1038C00092B213409AB27B689A81BD4602B080BD25
:1038D00080B582B000AF78600A1CBB1C1A80BB1C8C
:1038E0001B88DB439AB27B681A82BD4602B080BD5A
:1038F00080B584B000AF78600023FB60074B5A6846
:10390000074B1340FB60FA687B681343FB60034B73
:10391000FA685A60BD4604B080BDC046002C004025
:103920007FFEFFFF80B584B000AF021CFB1D1A7044
:103930000023FB60084B5B687F229343FB60FB1D09
:103940001A787F231A40FB681343FB60024BFA6826
:103950005A60BD4604B080BD002C004080B500AF69
:10396000044B044A5268802189000A435A60BD46CC
:1039700080BDC046002C004080B582B000AF021C64
:10398000FB1D1A70044BFA1D11787F220A401A6041
:10399000BD4602B080BDC046002C004080B582B05C
:1039A00000AF021CFB1D1A70054BFA1D1278802116
:1039B00049420A43D2B21A60BD4602B080BDC04639
:1039C000002C004080B584B000AF78600023FB601D
:1039D0007B689B78002B3CD0244B7A681278920845
:1039E000D2B2C0329200D358FB607B681B781A1C9D
:1039F00003231340DB00FF22101C9840031CDA4312
:103A0000FB681340FB607B685B789A01FF231A40D8
:103A10007B681B78191C03230B40DB00111C9940A9
:103A20000B1CFA681343FB60104B7A6812789208FB
:103A3000D2B2C0329200F968D1500C4B7A68127839
:103A4000111C1F220A400121081C9040021C1A6010
:103A500009E0064A7B681B78191C1F230B400121D3
:103A600099408023D150BD4604B080BD00E100E004
:103A700080B588B000AF8023DB01181C0121FEF760
:103A800037F89023DB05181C02210122FFF778FC90
:103A90009023DB05181C03210122FFF771FC3B1C5E
:103AA0000833181CFFF76AFD3B1C083396221202EC
:103AB0001A60394A3B1C0833101C191CFFF7AEFC76
:103AC000354B181C0121FFF773FD334B181C2321C4
:103AD000FFF7AAFD304B181C0121FFF787FD2E4A86
:103AE0002E4B101C191C0122FFF7B2FD2A4B2A4A4B
:103AF0009268C0210A439A603B1D1B221A703B1D2D
:103B000003225A703B1D01229A703B1D181CFFF7BF
:103B100059FF234A0223FF330021D154204A812335
:103B20005B000021D1541F4A80235B000021D15447
:103B30001C4A80235B00D15C1A4A0223FF33D15414
:103B4000184A84235B000021D154164A0A23FF330C
:103B50000021D154134A82235B0080214900D150B7
:103B6000114AA3235B000021D1540F4AA3235B0019
:103B7000D15C0D4A4623FF33D1540B4A4823FF330F
:103B80000021D154094B00221A709023DB05022238
:103B90001A85BD4608B080BD003801401A010B00EF
:103BA000A4080020940700204C060020A008002054
:103BB00080B500AF114A80231B01101C191CFFF7B0
:103BC00089FD031C012B16D10C4A80231B01101CFC
:103BD000191CFFF79DFD0A4B59680A4A82235B00B6
:103BE000D150084A0A23FF330021D154054A8523C6
:103BF0005B000121D154BD4680BDC0460038014064
:103C0000580002409407002080B5B8B000AFD24AF7
:103C100085235B000021D154D04B5B68DBB25B4253
:103C2000D9B2CD4A0223FF33D154CB4A84235B005F
:103C3000D35C012B2FD0C84A0223FF33D15CC64A84
:103C400080235B00D25C3B1CDF338A1A1A701DE0B4
:103C5000C14A80235B00D35C5A1CD0B2BE4980228B
:103C600052008854BC4AD35C5A2B08D1BA4A8423E8
:103C70005B000121D1543B1CDF3301221A703B1C35
:103C8000DF331A783B1CDF33013A1A703B1CDF33F9
:103C90001B78002BDCD1B04A84235B00D35C012B62
:103CA00014D0AD4A0A23FF33D35C002B00D050E17F
:103CB000A94A0223FF33D15CA74A80235B00D15479
:103CC000A54A84235B000021D15442E1A24A022389
:103CD000FF33D15CA04A80235B00D25C3B1CDF3306
:103CE0008A1A1A709C4A80235B00D35C5A1C3B1CC6
:103CF000DB3399498A5C1A703B1CDF331B78042B39
:103D000000D812E13B1CDF331A783B1CDB331B78F5
:103D100002339A4200DA08E18F4A80235B00D25CCA
:103D20008D490223FF33CB5C9A4200D87FE03B1CD5
:103D3000DC3300221A703B1CDE338749802252009C
:103D40008A5C1A703B1CDD333A1CDB32127802327B
:103D50001A701FE03B1CDC331B783A1CDE321278F1
:103D60007D49895C3A1C4432D1543B1CDE331A78BD
:103D70003B1CDE3301321A703B1CDC331A783B1CCF
:103D8000DC3301321A703B1CDD331A783B1CDD3307
:103D9000013A1A703B1CDD331B78002BDAD13A1C38
:103DA00044323B1CDB331B78101C00211A1CFDF72E
:103DB000EDFF031C1A1C3B1CD8331A803B1CD83364
:103DC0001A783B1CDB331B78391C4431CB5C9A429C
:103DD00019D13B1CD8335A783B1CDB331B78013399
:103DE000391C4431CB5C9A420DD13A1CC4323B1C85
:103DF0004433101C191C00F007FA3B1CC433181C78
:103E0000FFF798F870E03A1C40230221D1543A1C85
:103E10004023D35C391C3A1CD832081C111C1A1CD4
:103E2000FEF722FD3B1C181C00F09AF85CE04A4AA1
:103E300080235B00D25C48493B1CDB331B78081CA9
:103E4000111C1A1CFDF7A2FF031C1A1C3B1CD833C3
:103E50001A803B1CD8331A783F4980235B00CB5C27
:103E6000191C3B1CDB331B78CB183B49CB5C9A42BB
:103E700023D13B1CD8335A78374980235B00CB5C75
:103E8000191C3B1CDB331B78CB1801333249CB5C4C
:103E90009A4212D1304A80235B00D35C1A1C2E4B0D
:103EA000D3183A1CC432101C191C00F0ADF93B1C8D
:103EB000C433181CFFF73EF816E03A1C4432402386
:103EC0000221D1543A1C44324023D35C391C443182
:103ED0003A1CD832081C111C1A1CFEF7C5FC3B1CEE
:103EE0004433181C00F03CF81B4A84235B0000217B
:103EF000D154194A80235B00D25C3B1CDB331B7816
:103F0000D318DBB20233D9B2134A80235B00D154F9
:103F1000114A0A23FF33D35C002B05D10E4A8523B7
:103F20005B000121D15413E012E00B4A0A23FF3356
:103F3000D35C002B0CD1084A0223FF33D15C064A24
:103F400080235B00D154044A84235B000021D154B8
:103F5000C046BD4638B080BD9407002058000240DE
:103F600090B585B000AF7860284AA3235B00D25C8F
:103F70003B1C0F3301321A703B1C0F331B78042B90
:103F800003D93B1C0F3300221A70204A4623FF330B
:103F9000D35C3A1C0F3212789A4201D1002330E0F0
:103FA0001A4AA3235B00D35C1A1C131C9B019B18A9
:103FB000164A99187A6878684023C35C081C111C5B
:103FC0001A1CFEF751FC114AA3235B00D35C1A1C98
:103FD00079684023C95C0D4C4020131C9B019B1841
:103FE000E3181B180A1C1A70084A391C0F31A32346
:103FF0005B000978D154054A4823FF330121D1548D
:104000000123181CBD4605B090BDC0464C060020DB
:1040100080B584B000AF7860254A4623FF33D25C78
:104020002349A3235B00CB5C9A4201D100233BE0F0
:104030001F4A4623FF33D25C3B1C0F3301321A70F8
:104040003B1C0F331B78042B03D93B1C0F3300227E
:104050001A70174A4623FF33D35C1A1C14484021B8
:10406000131C9B019B18C3185B1819787A684023AE
:10407000D15479680E4A4623FF33D35C1A1C131CB3
:104080009B019B180A4A9A1878684023C35C081C55
:10409000111C1A1CFEF7E8FB054A391C0F31462398
:1040A000FF330978D1540123181CBD4604B080BDEC
:1040B0004C06002080B500AF074A4623FF33D25C90
:1040C0000549A3235B00CB5C9A4201D1002300E0A9
:1040D0000123181CBD4680BD4C06002080B592B05F
:1040E00000AF2F4A0A23FF33D35C002B54D12D4A53
:1040F00081235B00D35C002B4ED1FFF7DBFF031C59
:10410000002B3DD03A1C4432274B111C1A1C0423AF
:10411000081C111C1A1C00F03FFA244B1B78002BC2
:1041200006D1224B01221A709023DB0502229A61EC
:104130003B1C181CFFF76CFF1A4A3B1C4433101C35
:10414000191C0422FEF790FB3A1C4023D35C18494B
:104150003A1C081C111C1A1CFEF786FB154B391C57
:1041600040228A5C04325A60124B124A12680121C2
:104170000A431A600B4A81235B000121D15406E0F7
:104180000A4B00221A709023DB0502221A850A4A84
:104190004823FF330021D154BD4612B080BDC04634
:1041A00094070020A40800206C480008A008002004
:1041B000A8080020440002404C06002080B500AF53
:1041C0000C4BDA694023134012D00A4B40221A628A
:1041D000094B094A1168094A0A401A60084A8123B2
:1041E0005B000021D154074A4823FF330121D154F9
:1041F000BD4680BD0038014044000240FEFF000083
:10420000A40800204C06002080B584B000AF786080
:1042100039607B683A689A603B681A783B1C0C33BB
:104220001A703B681A787B681A703B6801333B60F0
:104230003B681A787B685A703B6801333B603B1CD3
:104240000C331B781B06DB0FDBB2002B03D07B6823
:1042500001221A7402E07B6800221A743B1C0C33A2
:104260001B785B06DB0FDBB2002B0AD07B680122D8
:104270005A743B681A787B68DA703B6801333B609C
:1042800002E07B6800225A743B1C0C331B789B06AF
:10429000DB0FDBB2002B0AD07B6801229A743B68EB
:1042A0001A787B681A713B6801333B6002E07B68D7
:1042B00000229A747B683A68DA603A687B689B6887
:1042C000D31ADAB27B689A707B685A787B689B78DD
:1042D000D31ADAB27B689A70BD4604B080BDC0467E
:1042E00080B586B000AF78603B1C173301221A708E
:1042F0007B689B683B613B695A221A707B681B7C18
:10430000002B04D03B69013381221A7003E03B6922
:10431000013301221A703B1C17333A1C17321278F2
:1043200002321A707B685B7C002B16D03B1C173363
:104330001B783A69D3187A68D2781A703B1C173305
:104340003A1C1732127801321A703B6901333A690C
:10435000013212784132D2B21A707B689B7C002BFA
:1043600016D03B1C17331B783A69D3187A68127938
:104370001A703B1C17333A1C1732127801321A702C
:104380003B6901333A69013212782132D2B21A7094
:104390003B1C17331B783A69D1187B68DA687B6855
:1043A0009B78081C111C1A1CFEF75EFA7B68997832
:1043B0003B1C17333A1C173212788A181A703B6963
:1043C00002333A1C17321278013AD2B21A703B1CEF
:1043D00017331B78013BDBB23A69101C01211A1C10
:1043E000FDF7D4FC031C1A1C3B1C0C331A803B1C2D
:1043F00017331B783A69D3183A1C0C3212781A70AA
:104400003B1C17331B7801333A69D3183A1C0C3222
:1044100052781A703B1C17333A1C1732127802324A
:104420001A703B1C17331B78181CBD4606B080BDA4
:1044300080B598B000AF7860FB1C1970BB1C1A7077
:104440003B1C0833FA1C1278DA703B1C0833032239
:104450001A713B1C083301229A743B1C08339A7C66
:104460003B1C08335A747B681A78BB1C1B78D31822
:10447000DAB23B1C08339A703B1C08337A68DA6066
:104480003B1C08333A1C1C329A603B1C0833181C36
:10449000FFF726FF031C191C3A1C1C324023D15481
:1044A0003B1C1C33181CFFF75BFD031C181CBD468E
:1044B00018B080BD002934D00123002210B48842F6
:1044C0002CD301242407A14204D2814202D2090143
:1044D0001B01F8E7E400A14204D2814202D2490064
:1044E0005B00F8E7884201D3401A1A434C08A04207
:1044F00002D3001B5C0822438C08A04202D3001B9D
:104500009C082243CC08A04202D3001BDC082243B3
:10451000002803D01B0901D00909E3E7101C10BCD7
:104520007047002801D00020C04307B4024802A110
:104530004018029003BDC046190000000029F0D0C9
:1045400003B5FFF7B9FF0EBC4243891A1847C046AE
:104550007047C0469C460304F0B51B0C17043F0C83
:10456000150C1E1C041C000C7E436B434743454343
:10457000FB18300C1818874202D980235B02ED1813
:10458000030CED1863465C434A433604360CA1180D
:10459000000480194919F0BDF0B50F2A35D9031C64
:1045A0000B439C0735D1161C103E360935014519C1
:1045B00010350C1C031C27681F6067685F60A768C4
:1045C0009F60E7681034DF601033AB42F3D1731C97
:1045D0001B01C518C9180F231340032B1BD91C1F1F
:1045E000A4080134A4000023CE58EE500433A342A3
:1045F000FAD1ED18C91803231A4005D00023CC5C6A
:10460000EC5401339342FAD1F0BD051C002AF5D1D8
:10461000FAE7051CF2E71A1CF8E7C046030101009F
:1046200003010000E80100081C0200085A0200080B
:10463000A8030008C2030008DE0500085C090008A2
:10464000E0090008EC03000838040008EC03000847
:1046500022040008220400082204000822040008A2
:104660002204000822040008220400082204000892
:1046700022040008F40300080C0400080C040008DD
:104680000C0400080C040008060400081A040008C2
:104690001A0400081A0400081A0400081404000888
:1046A00050060008580900088C060008AC060008EF
:1046B000E60700085809000818080008580900080B
:1046C00062080008840800080100000000000000E3
:1046D0000A0000000000000064000000000000006C
:1046E000E8030000000000001027000000000000A8
:1046F000A08601000000000040420F000000000002
:10470000809698000000000000E1F5050000000020
:1047100000CA9A3B0000000000E40B5402000000B5
:1047200000E87648170000000010A5D4E80000005B
:1047300000A0724E1809000000407A10F35A0000E1
:104740000080C6A47E8D03000000C16FF2862300A6
:1047500000008A5D78456301000064A7B3B6E00DF0
:104760005E220008622200086A220008B2230008C4
:10477000D2230008F42300081C2400084024000869
:10478000382500083C250008442500088C26000830
:10479000AC260008CE260008F62600081A270008D6
:1047A000102A00088029000892290008A42900087E
:1047B000B6290008C8290008DA290008EC290008F1
:1047C000FE290008542C0008F02B0008FA2B0008E2
:1047D000042C00080E2C0008182C0008222C0008BD
:1047E0002C2C0008362C0008402C00084A2C00080D
:1047F000282F0008282F0008282F0008282F00083D
:10480000282F0008CA2E00089E2E0008BA2E000885
:10481000AC2E0008BA2E0008282F0008AC2E000885
:10482000BA2E0008AC2E0008BA2E0008BA2E0008D6
:10483000BA2E0008BA2E0008282F0008282F0008DA
:10484000AC2E0008BA2E0008BA2E0008282F000847
:10485000282F0008BA2E0008282F0008AC2E0008C8
:10486000282F0008AC2E0008022F0008FFFEFDFCD8
:104870000000000001020304010203040607080906
:0400000508000000EF
:00000001FF
